MPASM 5.63                          MAIN.ASM   12-24-2015  12:16:13         PAGE  1


LOC  OBJECT CODE     LINE SOURCE TEXT
  VALUE

                      00001 #include "p16F628A.inc"
                      00001         LIST
                      00002 
                      00003 ;==========================================================================
                      00004 ; Build date : Aug 13 2015
                      00005 ;  MPASM PIC16F628A processor include
                      00006 ; 
                      00007 ;  (c) Copyright 1999-2015 Microchip Technology, All rights reserved
                      00008 ;==========================================================================
                      00009 
                      00386         LIST
                      00002 
                      00003 ; TODO
                      00004 ; - bigger heatsink or lower voltage xformer on psu
                      00005 ; - listen to pedal instead of pulsing all the time
                      00006 ; - remember not to put call to PULSE inside ISR !
                      00007 
                      00008 ; CONFIG
                      00009 ; __config 0xFFF0
2007   3F70           00010   __CONFIG _FOSC_INTOSCIO & _WDTE_OFF & _PWRTE_ON & _MCLRE_ON & _BOREN_ON & _LVP_OFF & _CPD_OFF & _CP_OF
                            F
                      00011 
                      00012 #define D0 0x70
                      00013 #define D1 0x71
                      00014 #define D2 0x72
                      00015 #define D3 0x73
                      00016 #define NUM_HI 0x74
                      00017 #define NUM_LO 0x75
                      00018 #define SAVE_W 0x76
                      00019 #define SAVE_STATUS 0x77
                      00020 #define PORTB_SAVE 0x78
                      00021 #define ROTARY_STATE 0x79
                      00022 #define TMP 0x7A
                      00023 #define PULSE_COUNT_HI 0x7B
                      00024 #define PULSE_COUNT_LO 0x7C
                      00025 #define PULSE_TMP 0x7D
                      00026 #define STATE 0x7E ; bit 0 means pulse is or should be going
                      00027 
                      00028 RES_VECT CODE 0x0000
0000   2???           00029     GOTO START
                      00030 
                      00031 INT_VECT CODE 0x0004
                      00032     ; save state and go to bank 0
0004   00F6           00033     MOVWF SAVE_W ; save W
0005   0E03           00034     SWAPF STATUS, W ; SAVE STATUS (swapped)
0006   00F7           00035     MOVWF SAVE_STATUS
0007   1283 1303      00036     BANKSEL 0
                      00037     ; check if INTF set (pedal pressed)
0009   1C8B           00038     BTFSS INTCON, INTF
000A   2???           00039     GOTO ENDINTA
000B   108B           00040     BCF INTCON, INTF
000C   147E           00041     BSF STATE, 0
000D                  00042 ENDINTA
MPASM 5.63                          MAIN.ASM   12-24-2015  12:16:13         PAGE  2


LOC  OBJECT CODE     LINE SOURCE TEXT
  VALUE

                      00043     ; check if portb changed
000D   1C0B           00044     BTFSS INTCON, RBIF
000E   2???           00045     GOTO ENDINTB
                      00046     ; workaround for PORTB latch bug
                      00047     ; http://www.microchip.com/forums/m294169.aspx
000F   0806           00048     MOVF PORTB, W ; this could read bullshit, apparently
0010   100B           00049     BCF INTCON, RBIF
0011   0806           00050     MOVF PORTB, W
0012   00F8           00051     MOVWF PORTB_SAVE
                      00052     ; now we shift in the two bits from rotary encoder
0013   300F           00053     MOVLW 0x0F
0014   05F9           00054     ANDWF ROTARY_STATE, F
0015   1003           00055     BCF STATUS, C
0016   0DF9           00056     RLF ROTARY_STATE, F
0017   0DF9           00057     RLF ROTARY_STATE, F
0018   0E78           00058     SWAPF PORTB_SAVE, W ; strip relevant bits from portb
0019   3903           00059     ANDLW 3
001A   04F9           00060     IORWF ROTARY_STATE, F
                      00061     ; check increment
001B   0879           00062     MOVF ROTARY_STATE, W
001C   3A12           00063     XORLW ~0xED
001D   1D03           00064     BTFSS STATUS, Z
001E   2???           00065     GOTO $ + 3
001F   2???           00066     CALL INC_NUM
0020   2???           00067     CALL DISP_NUM
                      00068     ; check decrement
0021   0879           00069     MOVF ROTARY_STATE, W
0022   3A21           00070     XORLW ~0xDE
0023   1D03           00071     BTFSS STATUS, Z
0024   2???           00072     GOTO $ + 3
0025   2???           00073     CALL DEC_NUM
0026   2???           00074     CALL DISP_NUM
                      00075     ; restore state
0027                  00076 ENDINTB
0027   0E77           00077     SWAPF SAVE_STATUS, W ; restore status
0028   0083           00078     MOVWF STATUS
0029   0EF6           00079     SWAPF SAVE_W, F ; restore W without fucking status
002A   0E76           00080     SWAPF SAVE_W, W
002B   0009           00081     RETFIE
                      00082 
                      00083 MAIN_PROG CODE
                      00084 
0000                  00085 DISP_DIGIT_LUT
0000   0782           00086     ADDWF PCL, F
0001   3481           00087     RETLW ~0x7E ; 0
0002   34ED           00088     RETLW ~0x12 ; 1
0003   3443           00089     RETLW ~0xBC ; 2
0004   3449           00090     RETLW ~0xB6 ; 3
0005   342D           00091     RETLW ~0xD2 ; 4
0006   3419           00092     RETLW ~0xE6 ; 5
0007   3411           00093     RETLW ~0xEE ; 6
0008   34CD           00094     RETLW ~0x32 ; 7
0009   3401           00095     RETLW ~0xFE ; 8
MPASM 5.63                          MAIN.ASM   12-24-2015  12:16:13         PAGE  3


LOC  OBJECT CODE     LINE SOURCE TEXT
  VALUE

000A   3409           00096     RETLW ~0xF6 ; 9
                      00097     
000B                  00098 DISP_DIGIT
000B   2???           00099     CALL DISP_DIGIT_LUT
000C   0099           00100     MOVWF TXREG
000D   1683 1303      00101     BANKSEL TXSTA
Message[302]: Register in operand not in bank 0.  Ensure that bank bits are correct.
000F   1C98           00102     BTFSS TXSTA, TRMT
0010   2???           00103     GOTO $ - 1
0011   1283 1303      00104     BANKSEL 0
0013   0008           00105     RETURN
                      00106 
0014                  00107 BINTODEC
0014   01F2           00108     CLRF D2
0015   0E75           00109     SWAPF NUM_LO, W ; n >>= 4;
0016   390F           00110     ANDLW 0xF
0017   00F0           00111     MOVWF D0
0018   0E74           00112     SWAPF NUM_HI, W
0019   04F0           00113     IORWF D0, F
001A   3018           00114     MOVLW 0x18 ; if (n >= 0x28) n += 0x18;
001B   07F0           00115     ADDWF D0, F
001C   1F70           00116     BTFSS D0, 6
001D   02F0           00117     SUBWF D0, F
001E   300C           00118     MOVLW 0xC ; if ((n & 0x3C) >= 0x14) n += 0xC;
001F   07F0           00119     ADDWF D0, F
0020   1EF0           00120     BTFSS D0, 5
0021   02F0           00121     SUBWF D0, F
0022   3006           00122     MOVLW 0x6 ; if ((n & 0x1E) >= 0xA) n += 0x6;
0023   07F0           00123     ADDWF D0, F
0024   1E70           00124     BTFSS D0, 4
0025   02F0           00125     SUBWF D0, F
0026   3030           00126     MOVLW 0x30 ; if ((n & 0xF0) >= 0x50) n += 0x30;
0027   07F0           00127     ADDWF D0, F
0028   1FF0           00128     BTFSS D0, 7
0029   02F0           00129     SUBWF D0, F
002A   3003           00130     MOVLW 0x3 ; if ((n & 0xF) >= 0x5) n += 0x3;
002B   07F0           00131     ADDWF D0, F
002C   1DF0           00132     BTFSS D0, 3
002D   02F0           00133     SUBWF D0, F
002E   3018           00134     MOVLW 0x18 ; if ((n & 0x78) >= 0x28) n += 0x18;
002F   07F0           00135     ADDWF D0, F
0030   1F70           00136     BTFSS D0, 6
0031   02F0           00137     SUBWF D0, F
0032   0E75           00138     SWAPF NUM_LO, W
0033   00FA           00139     MOVWF TMP
0034   0DFA           00140     RLF TMP, F
0035   0DF0           00141     RLF D0, F
0036   0DF2           00142     RLF D2, F
0037   3003           00143     MOVLW 0x3
0038   07F0           00144     ADDWF D0, F
0039   1DF0           00145     BTFSS D0, 3
003A   02F0           00146     SUBWF D0, F
003B   0DFA           00147     RLF TMP, F
MPASM 5.63                          MAIN.ASM   12-24-2015  12:16:13         PAGE  4


LOC  OBJECT CODE     LINE SOURCE TEXT
  VALUE

003C   0DF0           00148     RLF D0, F
003D   0DF2           00149     RLF D2, F
003E   3003           00150     MOVLW 0x3
003F   07F0           00151     ADDWF D0, F
0040   1DF0           00152     BTFSS D0, 3
0041   02F0           00153     SUBWF D0, F
0042   3030           00154     MOVLW 0x30
0043   07F0           00155     ADDWF D0, F
0044   1FF0           00156     BTFSS D0, 7
0045   02F0           00157     SUBWF D0, F
0046   0DFA           00158     RLF TMP, F
0047   0DF0           00159     RLF D0, F
0048   0DF2           00160     RLF D2, F
0049   3003           00161     MOVLW 0x3
004A   07F0           00162     ADDWF D0, F
004B   1DF0           00163     BTFSS D0, 3
004C   02F0           00164     SUBWF D0, F
004D   3030           00165     MOVLW 0x30
004E   07F0           00166     ADDWF D0, F
004F   1FF0           00167     BTFSS D0, 7
0050   02F0           00168     SUBWF D0, F
0051   0DFA           00169     RLF TMP, F
0052   0DF0           00170     RLF D0, F
0053   0DF2           00171     RLF D2, F
0054   0E70           00172     SWAPF D0, W ; unpack
0055   390F           00173     ANDLW 0x0F
0056   00F1           00174     MOVWF D1
0057   300F           00175     MOVLW 0x0F
0058   05F0           00176     ANDWF D0, F
0059   0008           00177     RETURN
                      00178 
005A                  00179 DECTOBIN
005A   1003           00180     BCF STATUS, C
005B   0D71           00181     RLF D1, W ; W = D1 * 2
005C   00FA           00182     MOVWF TMP ; TMP = D1 * 2, W = D1 * 2
005D   07FA           00183     ADDWF TMP, F ; TMP = D1 * 4, W = D1 * 2
005E   07FA           00184     ADDWF TMP, F ; TMP = D1 * 6, W = D1 * 2
005F   07FA           00185     ADDWF TMP, F ; TMP = D1 * 8, W = D1 * 2
0060   077A           00186     ADDWF TMP, W ; TMP = D1 * 8, W = D1 * 10
0061   0770           00187     ADDWF D0, W ; W = D1 * 10 + D0
0062   00F5           00188     MOVWF NUM_LO ; that's all for digit 0 and 1
0063   0D72           00189     RLF D2, W ; W = D2 * 2 (addwf above makes carry 0)
0064   00FA           00190     MOVWF TMP ; TMP = D2 * 2
0065   0D7A           00191     RLF TMP, W ; W = D2 * 4
0066   07F5           00192     ADDWF NUM_LO, F ; NUM_LO += D2 * 4 (i counted this won't overflow)
0067   07FA           00193     ADDWF TMP, F ; TMP = D2 * 6
0068   0E7A           00194     SWAPF TMP, W
0069   390F           00195     ANDLW 0x0F
006A   00F4           00196     MOVWF NUM_HI
006B   0E7A           00197     SWAPF TMP, W
006C   39F0           00198     ANDLW 0xF0
006D   07F5           00199     ADDWF NUM_LO, F
006E   1803           00200     BTFSC STATUS, C
MPASM 5.63                          MAIN.ASM   12-24-2015  12:16:13         PAGE  5


LOC  OBJECT CODE     LINE SOURCE TEXT
  VALUE

006F   0AF4           00201     INCF NUM_HI, F
0070   0008           00202     RETURN
                      00203 
0071                  00204 INC_NUM ; trashes W
0071   3001           00205     MOVLW 1
0072   1F78           00206     BTFSS PORTB_SAVE, 6
0073   300A           00207     MOVLW D'10'
0074   00FA           00208     MOVWF TMP
0075                  00209 INC_LOOP
0075   3003           00210     MOVLW 3
0076   0674           00211     XORWF NUM_HI, W
0077   1D03           00212     BTFSS STATUS, Z
0078   2???           00213     GOTO $ + 5
0079   30E7           00214     MOVLW 0xE7
007A   0675           00215     XORWF NUM_LO, W
007B   1903           00216     BTFSC STATUS, Z
007C   0008           00217     RETURN
007D   0AF5           00218     INCF NUM_LO, F
007E   1903           00219     BTFSC STATUS, Z
007F   0AF4           00220     INCF NUM_HI, F
Message[305]: Using default destination of 1 (file).
0080   0BFA           00221     DECFSZ TMP
0081   2???           00222     GOTO INC_LOOP
0082   0008           00223     RETURN
                      00224 
0083                  00225 DEC_NUM ; trashes W
0083   3001           00226     MOVLW 1
0084   1F78           00227     BTFSS PORTB_SAVE, 6
0085   300A           00228     MOVLW D'10'
0086   00FA           00229     MOVWF TMP
0087                  00230 DEC_LOOP
0087   08F4           00231     MOVF NUM_HI, F
0088   1D03           00232     BTFSS STATUS, Z
0089   2???           00233     GOTO $ + 4
008A   0375           00234     DECF NUM_LO, W
008B   1903           00235     BTFSC STATUS, Z
008C   0008           00236     RETURN
008D   08F5           00237     MOVF NUM_LO, F
008E   1903           00238     BTFSC STATUS, Z
008F   03F4           00239     DECF NUM_HI, F
0090   03F5           00240     DECF NUM_LO, F
Message[305]: Using default destination of 1 (file).
0091   0BFA           00241     DECFSZ TMP
0092   2???           00242     GOTO DEC_LOOP
0093   0008           00243     RETURN
                      00244 
0094                  00245 DISP_NUM
0094   2???           00246     CALL BINTODEC
                      00247     ; show time
0095   0872           00248     MOVF D2, W
0096   2???           00249     CALL DISP_DIGIT
0097   0871           00250     MOVF D1, W
0098   2???           00251     CALL DISP_DIGIT
MPASM 5.63                          MAIN.ASM   12-24-2015  12:16:13         PAGE  6


LOC  OBJECT CODE     LINE SOURCE TEXT
  VALUE

0099   0870           00252     MOVF D0, W
009A   2???           00253     CALL DISP_DIGIT
009B   0008           00254     RETURN
                      00255 
009C                  00256 PULSE
                      00257     ; wait until mains input goes negative
                      00258     ; TODO perhaps wait for change in either direction to sync instead
                      00259     ; this would make debugging ever so slightly less elegant
009C   1C05           00260     BTFSS PORTA, 0
009D   2???           00261     GOTO $ - 1
009E   1805           00262     BTFSC PORTA, 0
009F   2???           00263     GOTO $ - 1
                      00264     ; now wait a a while so it is middle a cycle
                      00265     ; we depend on the SSR to wait for a zero crossing
00A0   2???           00266     CALL WAIT
00A1   2???           00267     CALL WAIT
                      00268     ; prepare
00A2   0875           00269     MOVF NUM_LO, W
00A3   00FC           00270     MOVWF PULSE_COUNT_LO
00A4   0874           00271     MOVF NUM_HI, W
00A5   00FB           00272     MOVWF PULSE_COUNT_HI
00A6   08FC           00273     MOVF PULSE_COUNT_LO, F
00A7   1903           00274     BTFSC STATUS, Z
00A8   03FB           00275     DECF PULSE_COUNT_HI, F
00A9   03FC           00276     DECF PULSE_COUNT_LO, F
00AA   0805           00277     MOVF PORTA, W
                      00278     ; go
00AB   1485           00279     BSF PORTA, 1
00AC                  00280 PULSE_LOOP
00AC   00FD           00281     MOVWF PULSE_TMP ; PORTA in W from last iteration or init
00AD   0805           00282     MOVF PORTA, W
00AE   06FD           00283     XORWF PULSE_TMP, F
00AF   187D           00284     BTFSC PULSE_TMP, 0 ; A0 changed
00B0   2???           00285     GOTO PULSE_STEP
00B1   2???           00286     GOTO PULSE_LOOP
00B2                  00287 PULSE_STEP
00B2   08FB           00288     MOVF PULSE_COUNT_HI, F
00B3   1D03           00289     BTFSS STATUS, Z
00B4   2???           00290     GOTO $ + 4
00B5   08FC           00291     MOVF PULSE_COUNT_LO, F
00B6   1903           00292     BTFSC STATUS, Z
00B7   2???           00293     GOTO PULSE_END
00B8   08FC           00294     MOVF PULSE_COUNT_LO, F
00B9   1903           00295     BTFSC STATUS, Z
00BA   03FB           00296     DECF PULSE_COUNT_HI, F
00BB   03FC           00297     DECF PULSE_COUNT_LO, F
00BC   2???           00298     GOTO PULSE_LOOP
00BD                  00299 PULSE_END
00BD   2???           00300     CALL WAIT
00BE   1085           00301     BCF PORTA, 1
00BF   0008           00302     RETURN
                      00303 
00C0                  00304 WAIT
MPASM 5.63                          MAIN.ASM   12-24-2015  12:16:13         PAGE  7


LOC  OBJECT CODE     LINE SOURCE TEXT
  VALUE

00C0   01FD           00305     CLRF PULSE_TMP
00C1   0BFD           00306     DECFSZ PULSE_TMP, F
00C2   2???           00307     GOTO $ - 1
00C3   01FD           00308     CLRF PULSE_TMP
00C4   0BFD           00309     DECFSZ PULSE_TMP, F
00C5   2???           00310     GOTO $ - 1
00C6   01FD           00311     CLRF PULSE_TMP
00C7   0BFD           00312     DECFSZ PULSE_TMP, F
00C8   2???           00313     GOTO $ - 1
00C9   01FD           00314     CLRF PULSE_TMP
00CA   0BFD           00315     DECFSZ PULSE_TMP, F
00CB   2???           00316     GOTO $ - 1
00CC   0008           00317     RETURN
                      00318 
00CD                  00319 START
                      00320     ; set up serial
00CD   1683 1303      00321     BANKSEL SPBRG
Message[302]: Register in operand not in bank 0.  Ensure that bank bits are correct.
00CF   0199           00322     CLRF SPBRG
Message[302]: Register in operand not in bank 0.  Ensure that bank bits are correct.
00D0   1618           00323     BSF TXSTA, SYNC
Message[302]: Register in operand not in bank 0.  Ensure that bank bits are correct.
00D1   1798           00324     BSF TXSTA, CSRC
Message[302]: Register in operand not in bank 0.  Ensure that bank bits are correct.
00D2   1698           00325     BSF TXSTA, TXEN
00D3   1283 1303      00326     BANKSEL 0
00D5   1798           00327     BSF RCSTA, SPEN
                      00328     ; set up portb pull ups etc
00D6   1683 1303      00329     BANKSEL OPTION_REG
Message[302]: Register in operand not in bank 0.  Ensure that bank bits are correct.
00D8   1381           00330     BCF OPTION_REG, 7 ; RBPU
Message[302]: Register in operand not in bank 0.  Ensure that bank bits are correct.
00D9   1301           00331     BCF OPTION_REG, INTEDG  ; interrupt on falling edge
00DA   1283 1303      00332     BANKSEL 0
00DC   138B           00333     BCF INTCON, GIE
00DD   158B           00334     BSF INTCON, RBIE
00DE   160B           00335     BSF INTCON, INTE
00DF   100B           00336     BCF INTCON, RBIF
00E0   108B           00337     BCF INTCON, INTF
                      00338     ; GIE enabled later, when we are ready
                      00339     
                      00340     ; set up porta
00E1   0185           00341     CLRF PORTA
00E2   3007           00342     MOVLW 0x7
00E3   009F           00343     MOVWF CMCON
00E4   1683 1303      00344     BANKSEL TRISA
Message[302]: Register in operand not in bank 0.  Ensure that bank bits are correct.
00E6   1085           00345     BCF TRISA, 1
00E7   1283 1303      00346     BANKSEL 0
                      00347     
                      00348     ; go
00E9   3001           00349     MOVLW 1
00EA   00F5           00350     MOVWF NUM_LO
MPASM 5.63                          MAIN.ASM   12-24-2015  12:16:13         PAGE  8


LOC  OBJECT CODE     LINE SOURCE TEXT
  VALUE

00EB   01F4           00351     CLRF NUM_HI
00EC   2???           00352     CALL DISP_NUM
00ED   01FE           00353     CLRF STATE
00EE   178B           00354     BSF INTCON, GIE
                      00355 
00EF                  00356 LOOP
00EF   1C7E           00357     BTFSS STATE, 0
00F0   2???           00358     GOTO $ - 1
00F1   2???           00359     CALL PULSE
00F2   107E           00360     BCF STATE, 0
00F3   2???           00361     GOTO LOOP
                      00362 
3F70                  00363     END
MPASM 5.63                          MAIN.ASM   12-24-2015  12:16:13         PAGE  9


SYMBOL TABLE
  LABEL                             VALUE 

ADDEN                             00000003
ADEN                              00000003
BINTODEC                          00000014
BRGH                              00000002
C                                 00000000
C1INV                             00000004
C1OUT                             00000006
C2INV                             00000005
C2OUT                             00000007
CCP1CON                           00000017
CCP1IE                            00000002
CCP1IF                            00000002
CCP1M0                            00000000
CCP1M1                            00000001
CCP1M2                            00000002
CCP1M3                            00000003
CCP1X                             00000005
CCP1Y                             00000004
CCPR1                             00000015
CCPR1H                            00000016
CCPR1L                            00000015
CIS                               00000003
CM0                               00000000
CM1                               00000001
CM2                               00000002
CMCON                             0000001F
CMIE                              00000006
CMIF                              00000006
CREN                              00000004
CSRC                              00000007
D0                                0x70
D1                                0x71
D2                                0x72
D3                                0x73
DATA_CP_OFF                       00003FFF
DATA_CP_ON                        00003EFF
DC                                00000001
DECTOBIN                          0000005A
DEC_LOOP                          00000087
DEC_NUM                           00000083
DISP_DIGIT                        0000000B
DISP_DIGIT_LUT                    00000000
DISP_NUM                          00000094
EEADR                             0000009B
EECON1                            0000009C
EECON2                            0000009D
EEDATA                            0000009A
EEIE                              00000007
EEIF                              00000007
ENDINTA                           0000000D
ENDINTB                           00000027
F                                 00000001
FERR                              00000002
MPASM 5.63                          MAIN.ASM   12-24-2015  12:16:13         PAGE 10


SYMBOL TABLE
  LABEL                             VALUE 

FSR                               00000004
GIE                               00000007
INC_LOOP                          00000075
INC_NUM                           00000071
INDF                              00000000
INTCON                            0000000B
INTE                              00000004
INTEDG                            00000006
INTF                              00000001
IRP                               00000007
LOOP                              000000EF
NOT_BO                            00000000
NOT_BOD                           00000000
NOT_BOR                           00000000
NOT_PD                            00000003
NOT_POR                           00000001
NOT_RBPU                          00000007
NOT_T1SYNC                        00000002
NOT_TO                            00000004
NUM_HI                            0x74
NUM_LO                            0x75
OERR                              00000001
OPTION_REG                        00000081
OSCF                              00000003
PCL                               00000002
PCLATH                            0000000A
PCON                              0000008E
PEIE                              00000006
PIE1                              0000008C
PIR1                              0000000C
PORTA                             00000005
PORTB                             00000006
PORTB_SAVE                        0x78
PR2                               00000092
PS0                               00000000
PS1                               00000001
PS2                               00000002
PSA                               00000003
PULSE                             0000009C
PULSE_COUNT_HI                    0x7B
PULSE_COUNT_LO                    0x7C
PULSE_END                         000000BD
PULSE_LOOP                        000000AC
PULSE_STEP                        000000B2
PULSE_TMP                         0x7D
RA0                               00000000
RA1                               00000001
RA2                               00000002
RA3                               00000003
RA4                               00000004
RA5                               00000005
RA6                               00000006
RA7                               00000007
MPASM 5.63                          MAIN.ASM   12-24-2015  12:16:13         PAGE 11


SYMBOL TABLE
  LABEL                             VALUE 

RB0                               00000000
RB1                               00000001
RB2                               00000002
RB3                               00000003
RB4                               00000004
RB5                               00000005
RB6                               00000006
RB7                               00000007
RBIE                              00000003
RBIF                              00000000
RCIE                              00000005
RCIF                              00000005
RCREG                             0000001A
RCSTA                             00000018
RD                                00000000
ROTARY_STATE                      0x79
RP0                               00000005
RP1                               00000006
RX9                               00000006
RX9D                              00000000
SAVE_STATUS                       0x77
SAVE_W                            0x76
SPBRG                             00000099
SPEN                              00000007
SREN                              00000005
START                             000000CD
STATE                             0x7E
STATUS                            00000003
SYNC                              00000004
T0CS                              00000005
T0IE                              00000005
T0IF                              00000002
T0SE                              00000004
T1CKPS0                           00000004
T1CKPS1                           00000005
T1CON                             00000010
T1OSCEN                           00000003
T2CKPS0                           00000000
T2CKPS1                           00000001
T2CON                             00000012
TMP                               0x7A
TMR0                              00000001
TMR0IE                            00000005
TMR0IF                            00000002
TMR1                              0000000E
TMR1CS                            00000001
TMR1H                             0000000F
TMR1IE                            00000000
TMR1IF                            00000000
TMR1L                             0000000E
TMR1ON                            00000000
TMR2                              00000011
TMR2IE                            00000001
MPASM 5.63                          MAIN.ASM   12-24-2015  12:16:13         PAGE 12


SYMBOL TABLE
  LABEL                             VALUE 

TMR2IF                            00000001
TMR2ON                            00000002
TOUTPS0                           00000003
TOUTPS1                           00000004
TOUTPS2                           00000005
TOUTPS3                           00000006
TRISA                             00000085
TRISA0                            00000000
TRISA1                            00000001
TRISA2                            00000002
TRISA3                            00000003
TRISA4                            00000004
TRISA5                            00000005
TRISA6                            00000006
TRISA7                            00000007
TRISB                             00000086
TRISB0                            00000000
TRISB1                            00000001
TRISB2                            00000002
TRISB3                            00000003
TRISB4                            00000004
TRISB5                            00000005
TRISB6                            00000006
TRISB7                            00000007
TRMT                              00000001
TX9                               00000006
TX9D                              00000000
TXEN                              00000005
TXIE                              00000004
TXIF                              00000004
TXREG                             00000019
TXSTA                             00000098
VR0                               00000000
VR1                               00000001
VR2                               00000002
VR3                               00000003
VRCON                             0000009F
VREN                              00000007
VROE                              00000006
VRR                               00000005
W                                 00000000
WAIT                              000000C0
WR                                00000001
WREN                              00000002
WRERR                             00000003
Z                                 00000002
_BODEN_OFF                        00003FBF
_BODEN_ON                         00003FFF
_BOREN_OFF                        00003FBF
_BOREN_ON                         00003FFF
_CONFIG                           00002007
_CPD_OFF                          00003FFF
_CPD_ON                           00003EFF
MPASM 5.63                          MAIN.ASM   12-24-2015  12:16:13         PAGE 13


SYMBOL TABLE
  LABEL                             VALUE 

_CP_OFF                           00003FFF
_CP_ON                            00001FFF
_DEVID1                           00002006
_ER_OSC_CLKOUT                    00003FFF
_ER_OSC_NOCLKOUT                  00003FFE
_EXTCLK_OSC                       00003FEF
_FOSC_ECIO                        00003FEF
_FOSC_EXTRCCLK                    00003FFF
_FOSC_EXTRCIO                     00003FFE
_FOSC_HS                          00003FEE
_FOSC_INTOSCCLK                   00003FFD
_FOSC_INTOSCIO                    00003FFC
_FOSC_LP                          00003FEC
_FOSC_XT                          00003FED
_HS_OSC                           00003FEE
_IDLOC0                           00002000
_IDLOC1                           00002001
_IDLOC2                           00002002
_IDLOC3                           00002003
_INTOSC_OSC_CLKOUT                00003FFD
_INTOSC_OSC_NOCLKOUT              00003FFC
_INTRC_OSC_CLKOUT                 00003FFD
_INTRC_OSC_NOCLKOUT               00003FFC
_INT_VECT_001E                    0000001E
_INT_VECT_0024                    00000024
_LP_OSC                           00003FEC
_LVP_OFF                          00003F7F
_LVP_ON                           00003FFF
_MAIN_PROG_0010                   00000010
_MAIN_PROG_0078                   00000078
_MAIN_PROG_0089                   00000089
_MAIN_PROG_009D                   0000009D
_MAIN_PROG_009F                   0000009F
_MAIN_PROG_00B4                   000000B4
_MAIN_PROG_00C2                   000000C2
_MAIN_PROG_00C5                   000000C5
_MAIN_PROG_00C8                   000000C8
_MAIN_PROG_00CB                   000000CB
_MAIN_PROG_00F0                   000000F0
_MCLRE_OFF                        00003FDF
_MCLRE_ON                         00003FFF
_PWRTE_OFF                        00003FFF
_PWRTE_ON                         00003FF7
_RC_OSC_CLKOUT                    00003FFF
_RC_OSC_NOCLKOUT                  00003FFE
_WDTE_OFF                         00003FFB
_WDTE_ON                          00003FFF
_WDT_OFF                          00003FFB
_WDT_ON                           00003FFF
_XT_OSC                           00003FED
__16F628A                         00000001

MPASM 5.63                          MAIN.ASM   12-24-2015  12:16:13         PAGE 14





Errors   :     0
Warnings :     0 reported,     0 suppressed
Messages :    10 reported,     0 suppressed

