:020000040000FA
:02000000F928DD
:040002000034003492
:08000800F600030EF70083125D
:1000100003138B1C0D288B107E140B1C272806083D
:100020000B100608F8000F30F9050310F90DF90D53
:10003000780E0339F9047908123A031D21289D200E
:10004000C0207908213A031D2728AF20C020770E51
:080050008300F60E760E090094
:0800580082078134ED344334CA
:1000600049342D3419341134CD34013409342C2061
:10007000990083160313981C3B288312031308006E
:10008000F201750E0F39F000740EF0041830F0070D
:10009000701FF0020C30F007F01EF0020630F0077F
:1000A000701EF0023030F007F01FF0020330F0074E
:1000B000F01DF0021830F007701FF002750EFA0004
:1000C000FA0DF00DF20D0330F007F01DF002FA0DFD
:1000D000F00DF20D0330F007F01DF0023030F007A4
:1000E000F01FF002FA0DF00DF20D0330F007F01DD5
:1000F000F0023030F007F01FF002FA0DF00DF20DB3
:10010000700E0F39F1000F30F00508000310710D6B
:10011000FA00FA07FA07FA077A077007F500720D76
:10012000FA007A0DF507FA077A0E0F39F4007A0E05
:10013000F039F5070318F40A08000130781F0A3077
:10014000FA0003307406031DA928E7307506031969
:100150000800F50A0319F40AFA0BA1280800013077
:10016000781F0A30FA00F408031DB9287503031933
:100170000800F5080319F403F503FA0BB328080087
:100180004020720837207108372070083720080097
:10019000051CC8280518CA28EC20EC207508FC00AE
:1001A0007408FB00FC080319FB03FC030508851415
:1001B000FD000508FD067D18DE28D828FB08031D74
:1001C000E428FC080319E928FC080319FB03FC03D5
:1001D000D828EC2085100800FD01FD0BED28FD015D
:1001E000FD0BF028FD01FD0BF328FD01FD0BF628AA
:1001F000080083160313990118169817981683128E
:100200000313981783160313811301138312031327
:100210008B138B150B160B108B10850107309F006D
:10022000831603138510831203130130F500F401C4
:10023000C020FE018B177E1C1B29C8207E101B29A5
:02400E00703F01
:00000001FF
